{
  "address": "0x9ef64C875dccD88667b716a0DdEAf58c18FFdd73",
  "abi": [
    {
      "inputs": [
        {
          "internalType": "address",
          "name": "_vaultOwner",
          "type": "address"
        }
      ],
      "stateMutability": "nonpayable",
      "type": "constructor"
    },
    {
      "inputs": [],
      "name": "completed",
      "outputs": [
        {
          "internalType": "bool",
          "name": "",
          "type": "bool"
        }
      ],
      "stateMutability": "view",
      "type": "function"
    },
    {
      "inputs": [],
      "name": "execute",
      "outputs": [],
      "stateMutability": "nonpayable",
      "type": "function"
    },
    {
      "inputs": [],
      "name": "vaultOwner",
      "outputs": [
        {
          "internalType": "address",
          "name": "",
          "type": "address"
        }
      ],
      "stateMutability": "view",
      "type": "function"
    },
    {
      "stateMutability": "payable",
      "type": "receive"
    }
  ],
  "transactionHash": "0x845de47ac971b64b1a97560ea87ecb11eb580bfc293fcf738eda00e4118ae819",
  "args": [
    "0x27ccA8568F7721009bFD21e08B47886d8357A06B"
  ],
  "numDeployments": 1,
  "solcInputHash": "120bfa832906a23332afb51794262772",
  "bytecode": "0x608060405234801561001057600080fd5b5060405161029038038061029083398101604081905261002f91610053565b600080546001600160a81b0319166001600160a01b03909216919091179055610083565b60006020828403121561006557600080fd5b81516001600160a01b038116811461007c57600080fd5b9392505050565b6101fe806100926000396000f3fe6080604052600436106100385760003560e01c80631f52692b1461004457806361461954146100815780639d9a7fe91461009857600080fd5b3661003f57005b600080fd5b34801561005057600080fd5b50600054610064906001600160a01b031681565b6040516001600160a01b0390911681526020015b60405180910390f35b34801561008d57600080fd5b506100966100c9565b005b3480156100a457600080fd5b506000546100b990600160a01b900460ff1681565b6040519015158152602001610078565b600054600160a01b900460ff161561011b5760405162461bcd60e51b815260206004820152601060248201526f185b1c9958591e48195e1958dd5d195960821b60448201526064015b60405180910390fd5b60008054600160a01b60ff60a01b1982161782556040516001600160a01b039091169047908381818185875af1925050503d8060008114610178576040519150601f19603f3d011682016040523d82523d6000602084013e61017d565b606091505b50509050806101c55760405162461bcd60e51b81526020600482015260146024820152733330b4b632b2103a379039b2b7321022ba3432b960611b6044820152606401610112565b5056fea26469706673582212206fef36ea63b12468f6a8cb4eceb7465849e10dd7e1808efb4c519be855c8a64364736f6c63430008140033",
  "devdoc": {
    "kind": "dev",
    "methods": {},
    "version": 1
  },
  "userdoc": {
    "kind": "user",
    "methods": {},
    "version": 1
  },
  "storageLayout": {
    "storage": [
      {
        "astId": 211,
        "contract": "contracts/ExampleExternalContract.sol:ExampleExternalContract",
        "label": "vaultOwner",
        "offset": 0,
        "slot": "0",
        "type": "t_address"
      },
      {
        "astId": 213,
        "contract": "contracts/ExampleExternalContract.sol:ExampleExternalContract",
        "label": "completed",
        "offset": 20,
        "slot": "0",
        "type": "t_bool"
      }
    ],
    "types": {
      "t_address": {
        "encoding": "inplace",
        "label": "address",
        "numberOfBytes": "20"
      },
      "t_bool": {
        "encoding": "inplace",
        "label": "bool",
        "numberOfBytes": "1"
      }
    }
  }
}