{
  "address": "0x51134733e6Ebc58DC30753674ec976322c1F03bf",
  "abi": [
    {
      "inputs": [
        {
          "internalType": "address",
          "name": "_triggercontract",
          "type": "address"
        }
      ],
      "stateMutability": "nonpayable",
      "type": "constructor"
    },
    {
      "anonymous": false,
      "inputs": [
        {
          "indexed": true,
          "internalType": "address",
          "name": "previousOwner",
          "type": "address"
        },
        {
          "indexed": true,
          "internalType": "address",
          "name": "newOwner",
          "type": "address"
        }
      ],
      "name": "OwnershipTransferred",
      "type": "event"
    },
    {
      "anonymous": false,
      "inputs": [
        {
          "indexed": true,
          "internalType": "address",
          "name": "staker",
          "type": "address"
        },
        {
          "indexed": false,
          "internalType": "uint256",
          "name": "amount",
          "type": "uint256"
        },
        {
          "indexed": false,
          "internalType": "uint256",
          "name": "timestamp",
          "type": "uint256"
        }
      ],
      "name": "Staked",
      "type": "event"
    },
    {
      "anonymous": false,
      "inputs": [
        {
          "indexed": false,
          "internalType": "bool",
          "name": "success",
          "type": "bool"
        },
        {
          "indexed": false,
          "internalType": "uint256",
          "name": "balance",
          "type": "uint256"
        }
      ],
      "name": "Triggered",
      "type": "event"
    },
    {
      "anonymous": false,
      "inputs": [
        {
          "indexed": true,
          "internalType": "address",
          "name": "user",
          "type": "address"
        },
        {
          "indexed": false,
          "internalType": "uint256",
          "name": "amount",
          "type": "uint256"
        }
      ],
      "name": "withdrawn",
      "type": "event"
    },
    {
      "inputs": [],
      "name": "WithdrawethifFail",
      "outputs": [],
      "stateMutability": "nonpayable",
      "type": "function"
    },
    {
      "inputs": [
        {
          "internalType": "address",
          "name": "",
          "type": "address"
        }
      ],
      "name": "amountStaked",
      "outputs": [
        {
          "internalType": "uint256",
          "name": "",
          "type": "uint256"
        }
      ],
      "stateMutability": "view",
      "type": "function"
    },
    {
      "inputs": [],
      "name": "deadline",
      "outputs": [
        {
          "internalType": "uint256",
          "name": "",
          "type": "uint256"
        }
      ],
      "stateMutability": "view",
      "type": "function"
    },
    {
      "inputs": [],
      "name": "externalTriggerContract",
      "outputs": [
        {
          "internalType": "address",
          "name": "",
          "type": "address"
        }
      ],
      "stateMutability": "view",
      "type": "function"
    },
    {
      "inputs": [],
      "name": "getContractBalance",
      "outputs": [
        {
          "internalType": "uint256",
          "name": "",
          "type": "uint256"
        }
      ],
      "stateMutability": "view",
      "type": "function"
    },
    {
      "inputs": [],
      "name": "owner",
      "outputs": [
        {
          "internalType": "address",
          "name": "",
          "type": "address"
        }
      ],
      "stateMutability": "view",
      "type": "function"
    },
    {
      "inputs": [],
      "name": "renounceOwnership",
      "outputs": [],
      "stateMutability": "nonpayable",
      "type": "function"
    },
    {
      "inputs": [],
      "name": "stake",
      "outputs": [],
      "stateMutability": "payable",
      "type": "function"
    },
    {
      "inputs": [],
      "name": "threshold",
      "outputs": [
        {
          "internalType": "uint256",
          "name": "",
          "type": "uint256"
        }
      ],
      "stateMutability": "view",
      "type": "function"
    },
    {
      "inputs": [
        {
          "internalType": "address",
          "name": "newOwner",
          "type": "address"
        }
      ],
      "name": "transferOwnership",
      "outputs": [],
      "stateMutability": "nonpayable",
      "type": "function"
    },
    {
      "inputs": [],
      "name": "triggerExecuted",
      "outputs": [
        {
          "internalType": "bool",
          "name": "",
          "type": "bool"
        }
      ],
      "stateMutability": "view",
      "type": "function"
    },
    {
      "inputs": [],
      "name": "triggerExternal",
      "outputs": [],
      "stateMutability": "nonpayable",
      "type": "function"
    }
  ],
  "transactionHash": "0xc0c9891bc2641cd804fe06f56b2c7aa4ea40065ffb69e0d1e3bedb8cadeacd86",
  "args": [
    "0x9ef64C875dccD88667b716a0DdEAf58c18FFdd73"
  ],
  "numDeployments": 2,
  "solcInputHash": "050ce0f295548293e9371aaa67ca0a7a",
  "bytecode": "0x60a060405234801561001057600080fd5b50604051610ae6380380610ae683398101604081905261002f916100c1565b61003833610071565b60018055610049426203f4806100f1565b608052600280546001600160a01b0319166001600160a01b0392909216919091179055610118565b600080546001600160a01b038381166001600160a01b0319831681178455604051919092169283917f8be0079c531659141344cd1fd0a4f28419497f9722a3daafe3b4186f6b6457e09190a35050565b6000602082840312156100d357600080fd5b81516001600160a01b03811681146100ea57600080fd5b9392505050565b8082018082111561011257634e487b7160e01b600052601160045260246000fd5b92915050565b60805161099f6101476000396000818160d501528181610245015281816104e201526105be015261099f6000f3fe6080604052600436106100a75760003560e01c80638da5cb5b116100645780638da5cb5b14610156578063a4790bda14610188578063bd2001f8146101b9578063ef40a670146101ce578063f2fde38b146101fb578063f436315c1461021b57600080fd5b80630aadd1e7146100ac57806329dcb0cf146100c35780633a4b66f11461010a57806342cde4e8146101125780636f9fb98a1461012e578063715018a614610141575b600080fd5b3480156100b857600080fd5b506100c161023b565b005b3480156100cf57600080fd5b506100f77f000000000000000000000000000000000000000000000000000000000000000081565b6040519081526020015b60405180910390f35b6100c161049a565b34801561011e57600080fd5b506100f7671bc16d674ec8000081565b34801561013a57600080fd5b50476100f7565b34801561014d57600080fd5b506100c16105a1565b34801561016257600080fd5b506000546001600160a01b03165b6040516001600160a01b039091168152602001610101565b34801561019457600080fd5b506002546101a990600160a01b900460ff1681565b6040519015158152602001610101565b3480156101c557600080fd5b506100c16105b3565b3480156101da57600080fd5b506100f76101e9366004610912565b60036020526000908152604090205481565b34801561020757600080fd5b506100c1610216366004610912565b610796565b34801561022757600080fd5b50600254610170906001600160a01b031681565b61024361080f565b7f000000000000000000000000000000000000000000000000000000000000000042116102af5760405162461bcd60e51b81526020600482015260156024820152745374616b696e6720706572696f642061637469766560581b60448201526064015b60405180910390fd5b600254600160a01b900460ff16156103095760405162461bcd60e51b815260206004820152601760248201527f66756e647320616c72656164792074726967676572656400000000000000000060448201526064016102a6565b671bc16d674ec8000047106103705760405162461bcd60e51b815260206004820152602760248201527f7374616b696e67207375636365737366756c2c207769746864726177616c20646044820152661a5cd8589b195960ca1b60648201526084016102a6565b33600090815260036020526040902054806103c05760405162461bcd60e51b815260206004820152601060248201526f1b9bc8185b5bdd5b9d081cdd185ad95960821b60448201526064016102a6565b336000818152600360205260408082208290555190919083908381818185875af1925050503d8060008114610411576040519150601f19603f3d011682016040523d82523d6000602084013e610416565b606091505b50509050806104585760405162461bcd60e51b815260206004820152600e60248201526d1d1c985cd9995c8819985a5b195960921b60448201526064016102a6565b60405182815233907f6fb24f3ad0678f9d138e80b17293be051d87911eb34e9e60f0d1b9c3805e885a9060200160405180910390a2505061049860018055565b565b662386f26fc1000034116104e05760405162461bcd60e51b815260206004820152600d60248201526c7374616b6520746f6f206c6f7760981b60448201526064016102a6565b7f00000000000000000000000000000000000000000000000000000000000000004211156105415760405162461bcd60e51b815260206004820152600e60248201526d14dd185ada5b99c818db1bdcd95960921b60448201526064016102a6565b3360009081526003602052604081208054349290610560908490610942565b90915550506040805134815242602082015233917f1449c6dd7851abc30abf37f57715f492010519147cc2652fbc38202c18a6ee90910160405180910390a2565b6105a9610868565b61049860006108c2565b6105bb610868565b427f00000000000000000000000000000000000000000000000000000000000000001061061b5760405162461bcd60e51b815260206004820152600e60248201526d7374616b696e672061637469766560901b60448201526064016102a6565b671bc16d674ec800004710156106665760405162461bcd60e51b815260206004820152601060248201526f7468726573686f6c64206e6f74206d6560801b60448201526064016102a6565b600254600160a01b900460ff16156106b45760405162461bcd60e51b8152602060048201526011602482015270185b1c9958591e481d1c9a59d9d95c9959607a1b60448201526064016102a6565b60028054600160a01b60ff60a01b198216179091556040516000916001600160a01b03169047908381818185875af1925050503d8060008114610713576040519150601f19603f3d011682016040523d82523d6000602084013e610718565b606091505b505090508061075a5760405162461bcd60e51b815260206004820152600e60248201526d1d1c9a59d9d95c8819985a5b195960921b60448201526064016102a6565b60408051600181524760208201527f77445a29388c6e3e86ffdad9b20438b5426f2157b44ca655ae752cec1f001ab4910160405180910390a150565b61079e610868565b6001600160a01b0381166108035760405162461bcd60e51b815260206004820152602660248201527f4f776e61626c653a206e6577206f776e657220697320746865207a65726f206160448201526564647265737360d01b60648201526084016102a6565b61080c816108c2565b50565b6002600154036108615760405162461bcd60e51b815260206004820152601f60248201527f5265656e7472616e637947756172643a207265656e7472616e742063616c6c0060448201526064016102a6565b6002600155565b6000546001600160a01b031633146104985760405162461bcd60e51b815260206004820181905260248201527f4f776e61626c653a2063616c6c6572206973206e6f7420746865206f776e657260448201526064016102a6565b600080546001600160a01b038381166001600160a01b0319831681178455604051919092169283917f8be0079c531659141344cd1fd0a4f28419497f9722a3daafe3b4186f6b6457e09190a35050565b60006020828403121561092457600080fd5b81356001600160a01b038116811461093b57600080fd5b9392505050565b8082018082111561096357634e487b7160e01b600052601160045260246000fd5b9291505056fea2646970667358221220085c1f3d84d648e67d682456fee8de86ef8e6b24abc6a565cc3060035d0a404064736f6c63430008140033",
  "devdoc": {
    "kind": "dev",
    "methods": {
      "owner()": {
        "details": "Returns the address of the current owner."
      },
      "renounceOwnership()": {
        "details": "Leaves the contract without owner. It will not be possible to call `onlyOwner` functions. Can only be called by the current owner. NOTE: Renouncing ownership will leave the contract without an owner, thereby disabling any functionality that is only available to the owner."
      },
      "transferOwnership(address)": {
        "details": "Transfers ownership of the contract to a new account (`newOwner`). Can only be called by the current owner."
      }
    },
    "version": 1
  },
  "userdoc": {
    "kind": "user",
    "methods": {},
    "version": 1
  },
  "storageLayout": {
    "storage": [
      {
        "astId": 7,
        "contract": "contracts/Staker.sol:Staker",
        "label": "_owner",
        "offset": 0,
        "slot": "0",
        "type": "t_address"
      },
      {
        "astId": 123,
        "contract": "contracts/Staker.sol:Staker",
        "label": "_status",
        "offset": 0,
        "slot": "1",
        "type": "t_uint256"
      },
      {
        "astId": 288,
        "contract": "contracts/Staker.sol:Staker",
        "label": "externalTriggerContract",
        "offset": 0,
        "slot": "2",
        "type": "t_address"
      },
      {
        "astId": 290,
        "contract": "contracts/Staker.sol:Staker",
        "label": "triggerExecuted",
        "offset": 20,
        "slot": "2",
        "type": "t_bool"
      },
      {
        "astId": 294,
        "contract": "contracts/Staker.sol:Staker",
        "label": "amountStaked",
        "offset": 0,
        "slot": "3",
        "type": "t_mapping(t_address,t_uint256)"
      }
    ],
    "types": {
      "t_address": {
        "encoding": "inplace",
        "label": "address",
        "numberOfBytes": "20"
      },
      "t_bool": {
        "encoding": "inplace",
        "label": "bool",
        "numberOfBytes": "1"
      },
      "t_mapping(t_address,t_uint256)": {
        "encoding": "mapping",
        "key": "t_address",
        "label": "mapping(address => uint256)",
        "numberOfBytes": "32",
        "value": "t_uint256"
      },
      "t_uint256": {
        "encoding": "inplace",
        "label": "uint256",
        "numberOfBytes": "32"
      }
    }
  }
}